{
  "contractName": "Todo",
  "abi": [
    {
      "inputs": [],
      "payable": false,
      "stateMutability": "nonpayable",
      "type": "constructor"
    },
    {
      "constant": false,
      "inputs": [
        {
          "internalType": "string",
          "name": "_content",
          "type": "string"
        }
      ],
      "name": "createTodo",
      "outputs": [
        {
          "components": [
            {
              "internalType": "uint256",
              "name": "_id",
              "type": "uint256"
            },
            {
              "internalType": "string",
              "name": "_content",
              "type": "string"
            },
            {
              "internalType": "bool",
              "name": "_isCompleted",
              "type": "bool"
            }
          ],
          "internalType": "struct Todo.TodoStruct[]",
          "name": "",
          "type": "tuple[]"
        }
      ],
      "payable": false,
      "stateMutability": "nonpayable",
      "type": "function"
    },
    {
      "constant": true,
      "inputs": [],
      "name": "getTodoList",
      "outputs": [
        {
          "components": [
            {
              "internalType": "uint256",
              "name": "_id",
              "type": "uint256"
            },
            {
              "internalType": "string",
              "name": "_content",
              "type": "string"
            },
            {
              "internalType": "bool",
              "name": "_isCompleted",
              "type": "bool"
            }
          ],
          "internalType": "struct Todo.TodoStruct[]",
          "name": "",
          "type": "tuple[]"
        }
      ],
      "payable": false,
      "stateMutability": "view",
      "type": "function"
    },
    {
      "constant": false,
      "inputs": [
        {
          "internalType": "bool",
          "name": "_isCompleted",
          "type": "bool"
        },
        {
          "internalType": "uint256",
          "name": "_index",
          "type": "uint256"
        }
      ],
      "name": "upadetTask",
      "outputs": [
        {
          "components": [
            {
              "internalType": "uint256",
              "name": "_id",
              "type": "uint256"
            },
            {
              "internalType": "string",
              "name": "_content",
              "type": "string"
            },
            {
              "internalType": "bool",
              "name": "_isCompleted",
              "type": "bool"
            }
          ],
          "internalType": "struct Todo.TodoStruct[]",
          "name": "",
          "type": "tuple[]"
        }
      ],
      "payable": false,
      "stateMutability": "nonpayable",
      "type": "function"
    },
    {
      "constant": false,
      "inputs": [
        {
          "internalType": "uint256",
          "name": "_id",
          "type": "uint256"
        }
      ],
      "name": "deleteTask",
      "outputs": [
        {
          "components": [
            {
              "internalType": "uint256",
              "name": "_id",
              "type": "uint256"
            },
            {
              "internalType": "string",
              "name": "_content",
              "type": "string"
            },
            {
              "internalType": "bool",
              "name": "_isCompleted",
              "type": "bool"
            }
          ],
          "internalType": "struct Todo.TodoStruct[]",
          "name": "",
          "type": "tuple[]"
        }
      ],
      "payable": false,
      "stateMutability": "nonpayable",
      "type": "function"
    }
  ],
  "bytecode": "0x6080604052600060015534801561001557600080fd5b50610ce4806100256000396000f3fe608060405234801561001057600080fd5b506004361061004c5760003560e01c80630c7a16be14610051578063560f31921461006f578063e34f12211461009f578063fe9c3e48146100cf575b600080fd5b6100596100ff565b6040516100669190610b3a565b60405180910390f35b610089600480360361008491908101906109e1565b610225565b6040516100969190610b3a565b60405180910390f35b6100b960048036036100b491908101906109a0565b61043d565b6040516100c69190610b3a565b60405180910390f35b6100e960048036036100e49190810190610964565b61060e565b6040516100f69190610b3a565b60405180910390f35b60606000805480602002602001604051908101604052809291908181526020016000905b8282101561021c578382906000526020600020906003020160405180606001604052908160008201548152602001600182018054600181600116156101000203166002900480601f0160208091040260200160405190810160405280929190818152602001828054600181600116156101000203166002900480156101e95780601f106101be576101008083540402835291602001916101e9565b820191906000526020600020905b8154815290600101906020018083116101cc57829003601f168201915b505050505081526020016002820160009054906101000a900460ff16151515158152505081526020019060010190610123565b50505050905090565b606060006001600080549050038154811061023c57fe5b90600052602060002090600302016000838154811061025757fe5b90600052602060002090600302016000820154816000015560018201816001019080546001816001161561010002031660029004610296929190610772565b506002820160009054906101000a900460ff168160020160006101000a81548160ff02191690831515021790555090505060008054806102d257fe5b60019003818190600052602060002090600302016000808201600090556001820160006102ff91906107f9565b6002820160006101000a81549060ff0219169055505090556000805480602002602001604051908101604052809291908181526020016000905b82821015610432578382906000526020600020906003020160405180606001604052908160008201548152602001600182018054600181600116156101000203166002900480601f0160208091040260200160405190810160405280929190818152602001828054600181600116156101000203166002900480156103ff5780601f106103d4576101008083540402835291602001916103ff565b820191906000526020600020905b8154815290600101906020018083116103e257829003601f168201915b505050505081526020016002820160009054906101000a900460ff16151515158152505081526020019060010190610339565b505050509050919050565b606060016000815480929190600101919050555060006040518060600160405280600154815260200184815260200160001515815250908060018154018082558091505090600182039060005260206000209060030201600090919290919091506000820151816000015560208201518160010190805190602001906104c4929190610841565b5060408201518160020160006101000a81548160ff0219169083151502179055505050506000805480602002602001604051908101604052809291908181526020016000905b82821015610603578382906000526020600020906003020160405180606001604052908160008201548152602001600182018054600181600116156101000203166002900480601f0160208091040260200160405190810160405280929190818152602001828054600181600116156101000203166002900480156105d05780601f106105a5576101008083540402835291602001916105d0565b820191906000526020600020905b8154815290600101906020018083116105b357829003601f168201915b505050505081526020016002820160009054906101000a900460ff1615151515815250508152602001906001019061050a565b505050509050919050565b6060600080838154811061061e57fe5b90600052602060002090600302019050838160020160006101000a81548160ff0219169083151502179055506000805480602002602001604051908101604052809291908181526020016000905b82821015610765578382906000526020600020906003020160405180606001604052908160008201548152602001600182018054600181600116156101000203166002900480601f0160208091040260200160405190810160405280929190818152602001828054600181600116156101000203166002900480156107325780601f1061070757610100808354040283529160200191610732565b820191906000526020600020905b81548152906001019060200180831161071557829003601f168201915b505050505081526020016002820160009054906101000a900460ff1615151515815250508152602001906001019061066c565b5050505091505092915050565b828054600181600116156101000203166002900490600052602060002090601f016020900481019282601f106107ab57805485556107e8565b828001600101855582156107e857600052602060002091601f016020900482015b828111156107e75782548255916001019190600101906107cc565b5b5090506107f591906108c1565b5090565b50805460018160011615610100020316600290046000825580601f1061081f575061083e565b601f01602090049060005260206000209081019061083d91906108c1565b5b50565b828054600181600116156101000203166002900490600052602060002090601f016020900481019282601f1061088257805160ff19168380011785556108b0565b828001600101855582156108b0579182015b828111156108af578251825591602001919060010190610894565b5b5090506108bd91906108c1565b5090565b6108e391905b808211156108df5760008160009055506001016108c7565b5090565b90565b6000813590506108f581610c73565b92915050565b600082601f83011261090c57600080fd5b813561091f61091a82610b89565b610b5c565b9150808252602083016020830185838301111561093b57600080fd5b610946838284610c20565b50505092915050565b60008135905061095e81610c8a565b92915050565b6000806040838503121561097757600080fd5b6000610985858286016108e6565b92505060206109968582860161094f565b9150509250929050565b6000602082840312156109b257600080fd5b600082013567ffffffffffffffff8111156109cc57600080fd5b6109d8848285016108fb565b91505092915050565b6000602082840312156109f357600080fd5b6000610a018482850161094f565b91505092915050565b6000610a168383610adb565b905092915050565b6000610a2982610bc5565b610a338185610be8565b935083602082028501610a4585610bb5565b8060005b85811015610a815784840389528151610a628582610a0a565b9450610a6d83610bdb565b925060208a01995050600181019050610a49565b50829750879550505050505092915050565b610a9c81610c0a565b82525050565b6000610aad82610bd0565b610ab78185610bf9565b9350610ac7818560208601610c2f565b610ad081610c62565b840191505092915050565b6000606083016000830151610af36000860182610b2b565b5060208301518482036020860152610b0b8282610aa2565b9150506040830151610b206040860182610a93565b508091505092915050565b610b3481610c16565b82525050565b60006020820190508181036000830152610b548184610a1e565b905092915050565b6000604051905081810181811067ffffffffffffffff82111715610b7f57600080fd5b8060405250919050565b600067ffffffffffffffff821115610ba057600080fd5b601f19601f8301169050602081019050919050565b6000819050602082019050919050565b600081519050919050565b600081519050919050565b6000602082019050919050565b600082825260208201905092915050565b600082825260208201905092915050565b60008115159050919050565b6000819050919050565b82818337600083830152505050565b60005b83811015610c4d578082015181840152602081019050610c32565b83811115610c5c576000848401525b50505050565b6000601f19601f8301169050919050565b610c7c81610c0a565b8114610c8757600080fd5b50565b610c9381610c16565b8114610c9e57600080fd5b5056fea365627a7a723158205b0dface73328acf0be16ff84733ce129f94ec26cfd71c4cb8f49c4e6300fec06c6578706572696d656e74616cf564736f6c63430005100040",
  "source": "// SPDX-License-Identifier: MIT\npragma solidity >=0.4.21 <8.10.0;\n\npragma experimental ABIEncoderV2;\n\ncontract Todo {\n    \n    struct TodoStruct{\n        uint _id;\n        string _content;\n        bool _isCompleted;\n    }\n\n    TodoStruct[] taskList;\n    uint _autoIncrementId=0;\n\n    constructor()public{}\n\n    function createTodo(string memory _content) public  returns (TodoStruct[] memory){\n        _autoIncrementId ++;\n        taskList.push(\n            TodoStruct({\n                _id:_autoIncrementId,\n                _content:_content,\n                _isCompleted:false\n            })\n        );\n        return taskList;\n    }\n\n    function getTodoList() public view returns(TodoStruct[] memory){\n        return taskList;\n    }\n\n    function upadetTask(bool _isCompleted, uint _index) external returns(TodoStruct[] memory){\n        TodoStruct storage  tsk = taskList[_index];\n        tsk._isCompleted = _isCompleted;\n        return taskList;\n    }\n\n    function deleteTask(uint _id) public returns(TodoStruct[] memory) {\n        taskList[_id] = taskList[taskList.length-1];\n        taskList.pop();\n        return taskList;\n    }\n    \n}",
  "sourcePath": "/Users/fc19193/useCase/ether-simple-todo-list/contracts/Todo.sol",
  "compiler": {
    "name": "solc",
    "version": "0.5.16+commit.9c3226ce.Emscripten.clang"
  },
  "schemaVersion": "3.4.7",
  "updatedAt": "2022-05-31T20:40:16.271Z",
  "networkType": "ethereum",
  "devdoc": {
    "methods": {}
  },
  "userdoc": {
    "methods": {}
  }
}